:100000000C94F7020C941F030C941F030C941F0311
:100010000C941F030C941F030C941F030C941F03D8
:100020000C941F030C941F030C941F030C94E707FC
:100030000C941F030C941F030C941F030C941F03B8
:100040000C9471150C941F030C941F030C941F0344
:100050000C941F030C941F030C941F030C941F0398
:100060000C94220A0C941F0327041B041E04210471
:10007000240427042A0433043C04450468045C0473
:100080005F046204650468046B0474047D048604E0
:1000900000000000003E5B4F5B3E3E6B4F6B3E1C22
:1000A0003E7C3E1C183C7E3C181C577D571C1C5E39
:1000B0007F5E1C00183C1800FFE7C3E7FF00182410
:1000C0001800FFE7DBE7FF30483A060E26297929BA
:1000D00026407F050507407F05253F5A3CE73C5AEF
:1000E0007F3E1C1C08081C1C3E7F14227F22145FCC
:1000F0005F005F5F06097F017F006689956A606027
:1001000060606094A2FFA29408047E040810207E20
:10011000201008082A1C08081C2A08081E101010A5
:10012000100C1E0C1E0C30383E3830060E3E0E06EB
:10013000000000000000005F00000007000700143E
:100140007F147F14242A7F2A1223130864623649FD
:100150005620500008070300001C224100004122E5
:100160001C002A1C7F1C2A08083E080800807030EA
:100170000008080808080000606000201008040259
:100180003E5149453E00427F40007249494946215F
:1001900041494D331814127F1027454545393C4AD3
:1001A00049493141211109073649494936464949EA
:1001B000291E000014000000403400000008142232
:1001C00041141414141400412214080201590906A0
:1001D0003E415D594E7C1211127C7F494949363EA1
:1001E000414141227F4141413E7F494949417F0987
:1001F0000909013E414151737F0808087F00417F92
:1002000041002040413F017F081422417F4040408F
:10021000407F021C027F7F0408107F3E4141413E27
:100220007F090909063E4151215E7F0919294626A9
:100230004949493203017F01033F4040403F1F20AD
:1002400040201F3F4038403F631408146303047884
:1002500004036159494D43007F41414102040810A4
:1002600020004141417F04020102044040404040DF
:10027000000307080020545478407F28444438384D
:1002800044444428384444287F38545454180008BF
:100290007E090218A4A49C787F0804047800447D99
:1002A00040002040403D007F1028440000417F4036
:1002B000007C047804787C0804047838444444388A
:1002C000FC1824241818242418FC7C08040408486A
:1002D0005454542404043F44243C4040207C1C20BB
:1002E00040201C3C4030403C44281028444C909016
:1002F000907C4464544C4400083641000000770070
:1003000000004136080002010204023C2623263C7C
:100310001EA1A161123A4040207A38545455592107
:1003200055557941225454784221555478402054EF
:100330005579400C1E52721239555555593954543D
:10034000545939555454580000457C410002457DAC
:10035000420001457C407D1211127DF0282528F0D5
:100360007C545545002054547C547C0A097F493202
:10037000494949323A4444443A324A4848303A4179
:1003800041217A3A42402078009DA0A07D3D424222
:10039000423D3D4040403D3C24FF2424487E4943AB
:1003A000662B2FFC2F2BFF0929F620C0887E09031E
:1003B00020545479410000447D413048484A323845
:1003C0004040227A007A0A0A727D0D19317D262971
:1003D000292F28262929292630484D402038080869
:1003E000080808080808382F10C8ACBA2F1028349D
:1003F000FA00007B000008142A142222142A140890
:100400005500550055AA55AA55AAFF55FF55FF009E
:100410000000FF00101010FF00141414FF00101053
:10042000FF00FF1010F010F0141414FC001414F767
:1004300000FF0000FF00FF1414F404FC1414171054
:100440001F10101F101F1414141F00101010F000A4
:100450000000001F101010101F10101010F01000DE
:100460000000FF101010101010101010FF100000EE
:1004700000FF140000FF00FF00001F10170000FC29
:1004800004F414141710171414F404F40000FF00FB
:10049000F714141414141414F700F7141414171484
:1004A00010101F101F141414F4141010F010F0008A
:1004B000001F101F0000001F14000000FC140000AB
:1004C000F010F01010FF10FF141414FF141010108F
:1004D0001F00000000F010FFFFFFFFFFF0F0F0F042
:1004E000F0FFFFFF0000000000FFFF0F0F0F0F0FD6
:1004F0003844443844FC4A4A4A347E020206060222
:100500007E027E0263554941633844443C04407E88
:10051000201E2006027E020299A5E7A5991C2A4901
:100520002A1C4C7201724C304A4D4D30304878488C
:1005300030BC625A463D3E494949007E0101017E78
:100540002A2A2A2A2A44445F444440514A444040CB
:10055000444A51400000FF0103E080FF000008080A
:100560006B6B083612362436060F090F060000188A
:10057000180000001010003040FF0101001F0101B1
:100580001E00191D1712003C3C3C3C0000000000FE
:100590000000000800020100000304070000000042
:1005A000000000000102040810204080010204083D
:1005B00010200102040810200404040404040404AC
:1005C000020202020202030303030303000000000D
:1005D00023002600290000000000250028002B0031
:1005E00000000000240027002A00D60684091124F8
:1005F0001FBECFEFD8E0DEBFCDBF16E0A0E0B1E078
:10060000E4E7F2E302C005900D92A632B107D9F7F4
:1006100027E0A6E2B6E001C01D92AB39B207E1F7D0
:1006200015E0CEEED5E004C02297FE010E94151918
:10063000CA3ED107C9F70E940F170C9438190C94C1
:10064000000060E089E00E94761661E089E00E9487
:10065000AF1660E088E00E94761661E088E00E94B4
:10066000AF1661E087E00E94761660E087E00E94A6
:10067000AF1661E086E00E94761660E086E00E9498
:10068000AF1644EF51E060E084E496E00E940B086E
:1006900044EF51E061E084E496E00E940B0844EFEF
:1006A00051E062E084E496E00E940B0844EF51E0E0
:1006B00063E084E496E00E940B0884E496E00E94E4
:1006C000550721E04CE362E08BE996E00E944A1373
:1006D0008BE996E00E94CF1261E08BE996E00E94E0
:1006E000750F61E070E08BE996E00E947B0F40E0BF
:1006F00050E060E070E08BE996E00E946F0F64E4E8
:1007000075E08BE996E00E946B1762E575E08BE976
:1007100096E00E946B1760E675E08BE996E00E9418
:100720006B176EE675E08BE996E00E946B178BE91C
:1007300096E00E947F1468EE73E080E090E00C94F5
:10074000EA153F924F925F926F927F928F929F92A3
:10075000AF92BF92CF92DF92EF92FF920F931F93CF
:10076000CF93DF9380E996E00E94570885E896E0F2
:100770000E9457088AE396E00E941E1521E0892B0B
:1007800009F420E020932F0680E396E00E941E15D6
:1007900021E0892B09F420E020932E0680E996E0E1
:1007A0000E94800881110FC085E896E00E948008B1
:1007B000811109C080912F06811105C080912E06FC
:1007C000882309F4E1C280912F06882339F18AE356
:1007D00096E00E945015892B09F580910A0191E05D
:1007E000892780930A0160E087E00E94AF1660E0ED
:1007F00086E00E94AF1664E670E080E090E00E9420
:10080000EA1580910A01882309F4B8C261E087E003
:100810000E94AF1660E086E00E94AF1680E996E085
:100820000E94880890E08A309105C8F5FC01EC5CD4
:10083000FF4F0C94131988EE93E029C088EE93E0E3
:100840001DC088EE93E008C08CED95E00EC08CEDE5
:1008500095E01DC08CED95E090932D0680932C06BD
:1008600080ED97E018C080ED97E090932D0680937F
:100870002C0688EE93E00FC080ED97E090932D0654
:1008800080932C068CED95E006C080ED97E0909368
:100890002D0680932C0690932B0680932A0685E8DC
:1008A00096E00E94880890E08A309105C8F5FC0126
:1008B000E25CFF4F0C94131988EE93E029C088EE98
:1008C00093E01DC088EE93E008C08CED95E00EC06B
:1008D0008CED95E01DC08CED95E0909329068093FA
:1008E000280680ED97E018C080ED97E090932906E8
:1008F0008093280688EE93E00FC080ED97E09093F8
:100900002906809328068CED95E006C080ED97E0DF
:1009100090932906809328069093270680932606B5
:1009200040912C0650912D0660E084E496E00E94F0
:100930001E08409126065091270661E084E496E067
:100940000E941E08409128065091290662E084E426
:1009500096E00E941E0840912A0650912B0663E003
:1009600084E496E00E941E088BE996E00E94CF1274
:1009700040E050E060E070E08BE996E00E946F0F8D
:100980006BE775E08BE996E00E945E1780E996E0E0
:100990000E9488084AE050E0682F8BE996E00E94A8
:1009A0004D1865E875E08BE996E00E945E1785E8D2
:1009B00096E00E9488084AE050E0682F8BE996E0B4
:1009C0000E944D186FE875E08BE996E00E945E1773
:1009D00060912C0670912D064AE050E08BE996E07C
:1009E0000E94641869E975E08BE996E00E945E1741
:1009F00060912A0670912B064AE050E08BE996E060
:100A00000E94641863EA75E08BE996E00E945E1725
:100A100060912806709129064AE050E08BE996E043
:100A20000E9464186DEA75E08BE996E00E945E17FB
:100A300060912606709127064AE050E08BE996E027
:100A40000E94641867EB75E08BE996E00E945E17E0
:100A50008AE396E00E9450154AE050E0BC018BE921
:100A600096E00E94201861EC75E08BE996E00E9408
:100A70005E1780E396E00E9450154AE050E0BC010A
:100A80008BE996E00E9428186BEC75E08BE996E004
:100A90000E945E1780910A01882319F063E775E0D0
:100AA00002C066E775E08BE996E00E946B17E09163
:100AB0009B06F0919C06C681D78160912C067091AF
:100AC0002D0680E090E01F921F921F9220E8922E48
:100AD0009F9235E5A32EB12CC12CD12C10EDE12E27
:100AE00017E0F12E00E010E028EE33E040E050E0A7
:100AF0000E947A18EE24E394F12C04E110E09B01AB
:100B000044E150E060E570E08BE996E0FE01099574
:100B1000E0919B06F0919C06C681D78160912A06E0
:100B200070912B0680E090E01F921F921F929F927F
:100B300010EDE12E17E0F12E00E010E028EE33E09A
:100B400040E050E00E947A18EE24E394F12C0CE18E
:100B500010E09B014CE150E060E570E08BE996E02D
:100B6000FE010995E0919B06F0919C06C681D78114
:100B7000609128067091290680E090E01F921F92F4
:100B80001F929F9210EDE12E17E0F12E00E010E091
:100B900028EE33E040E050E00E947A18EE24E3941F
:100BA000F12C04E210E09B0144E250E060E570E0CB
:100BB0008BE996E0FE010995E0919B06F0919C0679
:100BC000C681D781609126067091270680E090E06B
:100BD0001F921F921F929F9210EDE12E17E0F12EAF
:100BE00000E010E028EE33E040E050E00E947A1888
:100BF000EE24E394F12C0CE210E09B014CE250E077
:100C000060E570E08BE996E0FE010995E0919B06B6
:100C1000F0919C06C681D78160912C0670912D06BB
:100C200080E090E099249A949F929F929F924AEF3D
:100C3000342E3F9256E0A52EB12CC12CD12C10EDB4
:100C4000E12E17E0F12E00E010E028EE33E040E066
:100C500050E00E947A182B013C0160912A067091A5
:100C60002B0680E090E01F921F921F92FAE08F2ED9
:100C70008F92A6EFAA2EBB24BA94CB2CDB2C28EEA5
:100C800033E040E050E00E947A188201085F1F4F75
:100C90009B01245A3F4FEE24E394F12C48E050E0AE
:100CA0006CE570E08BE996E0FE010995E0919B060A
:100CB000F0919C06C681D781609128067091290623
:100CC00080E090E09F929F929F923F9216E0A12E2B
:100CD000B12CC12CD12C10EDE12E17E0F12E00E04B
:100CE00010E028EE33E040E050E00E947A182B013B
:100CF0003C01609126067091270680E090E01F92EB
:100D00001F921F928F9236EFA32EBB24BA94CB2C46
:100D1000DB2C28EE33E040E050E00E947A182DB73B
:100D20003EB7205E3F4F0FB6F8943EBF0FBE2DBFBB
:100D30008201085F1F4F9B012C583F4FEE24E39424
:100D4000F12C48E050E064E770E08BE996E0FE01AA
:100D500009958BE996E0DF91CF911F910F91FF905C
:100D6000EF90DF90CF90BF90AF909F908F907F904B
:100D70006F905F904F903F900C947F1460E087E0FD
:100D80000E94AF1661E047CDDF91CF911F910F9187
:100D9000FF90EF90DF90CF90BF90AF909F908F909B
:100DA0007F906F905F904F903F9008950F931F93A7
:100DB00064E08BE996E00E94B61206E910E02EE0AE
:100DC0004FE151E06EE080E996E00E9431082EE0AC
:100DD0004BE051E06FE085E896E00E9431081F92F9
:100DE0008DE08F931F928CE08F931F928BE08F93F7
:100DF0001F928AE08F9384E08F9384E496E09F9320
:100E00008F930E941F0729E044E150E060E070E00A
:100E10008AE396E00E9406158DB79EB70B960FB633
:100E2000F8949EBF0FBE8DBF28E044E150E060E023
:100E300070E080E396E01F910F910C940615EF92FD
:100E4000FF921F93CF93DF93CDB7DEB7E884F98489
:100E50001A85193008F018E0F701108BAE01455FD4
:100E60005F4FD70180E090E060ED77E01296811748
:100E700090F4FA0121913191AF0150963C932E9359
:100E80001F979C01220F331F2E0D3F1DF901718307
:100E900060830196EBCFF092CD06E092CC06DF9115
:100EA000CF911F91FF90EF900895FF920F931F93A2
:100EB000CF93DF938C01F12CF8018089F81678F438
:100EC000E801CF0DD11DCF0DD11D61E089890E94B0
:100ED000761660E089890E94AF16F394EDCFF894FE
:100EE0001092800010928100109285001092840070
:100EF0008FEF9FEF9093890080938800809181000D
:100F0000886080938100809181008260809381005D
:100F100080916F00826080936F007894DF91CF9111
:100F20001F910F91FF9008958091CB06882381F047
:100F30002091CC069091CD06E22FF92FE80FF11DFC
:100F4000E80FF11D32978189928960E00E94AF1607
:100F50008091CB06E091CC06F091CD069089891363
:100F600013C080E49CE92091C9063091CA06821B17
:100F7000930B90938900809388001092CA06109278
:100F8000C9061092CB060895E80FF11DE80FF11D78
:100F900080819181909389008093880020918800BE
:100FA000309189008091C9069091CA06820F931FE3
:100FB0009093CA068093C9068189928961E00E9454
:100FC000AF168091CB068F5F8093CB0608951F925A
:100FD0000F920FB60F9211242F933F934F935F936D
:100FE0006F937F938F939F93AF93BF93EF93FF93F1
:100FF0000E949407FF91EF91BF91AF919F918F91C4
:101000007F916F915F914F913F912F910F900FBE04
:101010000F901F901895493E23E0520770F4FC0191
:101020002089621750F448515C4F440F551FE60F5A
:10103000F11DE60FF11D5183408308959A01285E4A
:101040003340293E334060F4FC012089621740F4AC
:10105000440F551FE60FF11DE60FF11D518340832C
:1010600008950F931F93FC01608323835283418370
:10107000178306838FEF848385838087128611868A
:101080001F910F910895FC01A181B28180E02D9103
:101090003D916217730730F09381290F311D261798
:1010A000370720F48F5F8A3091F780E00895CF935F
:1010B000DF93EC018C818D8388810E945415BC01E3
:1010C000CE010E9443089885891719F01A8619865F
:1010D0000AC029853A852F3F9FEF390721F02F5FFE
:1010E0003F4F3A872987888749855A852E813F81D6
:1010F0002417350708F48C838C81DF91CF910895F4
:10110000FC0181E024819581291301C080E00895CC
:10111000FC0184810895CF93CFB7F8948091D106D4
:10112000811127C0E2ECF5E08491EEEAF5E09491BC
:10113000E82FF0E0EE0FFF1FE052FA4FA591B491B7
:101140008C91892321F461E08AE00E94AF1661E06E
:101150008AE00E9476168CB580618CBD8CB5806467
:101160008CBD61E08DE00E94761661E08BE00E940C
:1011700076168091D1068F5F8093D106CFBFCF9135
:1011800008958091020790E020910307821B910946
:1011900008952091030780910207281750F4E22F49
:1011A000F0E0EC5FF84F808190E02F5F2093030721
:1011B00008958FEF9FEF0895E09103078091020754
:1011C000E81730F4F0E0EC5FF84F808190E008958C
:1011D0008FEF9FEF08950895CF92DF92EF92FF92E5
:1011E0000F931F93CF93DF937C01CB018A01209152
:1011F000DE06222389F0EB016B01C40ED51ECC154F
:10120000DD0569F06991D701ED91FC910190F081C4
:10121000E02DC7010995F3CF642F0E94F909C80199
:10122000DF91CF911F910F91FF90EF90DF90CF90C2
:101230000895CF93DF931F92CDB7DEB769832091D6
:10124000DE062223D1F02091DF06203240F021E09B
:1012500030E0FC013383228380E090E015C0809170
:10126000E006E82FF0E0EF51F94F998190838F5F0E
:101270008093E0068093DF0605C061E0CE01019611
:101280000E94F90981E090E00F90DF91CF910895DD
:10129000FC011382128248EE53E060E070E0448368
:1012A00055836683778389ED95E0918380830895E4
:1012B00010920307109202071092E0061092DF06C8
:1012C0000C94880981E08093DE06609301071092F8
:1012D000E0061092DF0608950C9462090F93062F22
:1012E00021E04091DF0661EE76E0809101070E94E7
:1012F000A6091092E0061092DF061092DE060F910A
:10130000089561E00C946E0982ED96E00C94480912
:101310001092910781E080938F0710928E0761E011
:1013200082E10E94AF1661E083E10E94AF16E9EB13
:10133000F0E080818E7F808380818D7F808388E450
:101340008093B80085E48093BC0008950F934132E8
:1013500008F046C0909191079111FCCF92E09093D4
:10136000910700938F079FEF9093240710926907CE
:1013700040936807FB016AE677E0DB019A2F961B32
:10138000941718F491919D93F9CF10929007909132
:101390009007880F892B8093900780918E0781306A
:1013A00041F410928E07809190078093BB0085ECEA
:1013B00001C085EE8093BC00222321F0809191072B
:1013C0008230E1F3809124078F3F61F08091240700
:1013D000803251F080912407803341F483E007C0CC
:1013E00081E005C080E003C082E001C084E00F918D
:1013F0000895613298F420919107243089F4609324
:101400004607FC0188E497E0DC012A2F281B2617F9
:1014100018F421912D93F9CF80E0089581E008958B
:1014200082E0089585ED8093BC008091BC0084FD2E
:10143000FCCF10929107089585EC8093BC00109228
:10144000910708951F920F920FB60F9211242F93B8
:101450003F934F935F936F937F938F939F93AF933C
:10146000BF93EF93FF938091B900887F803609F492
:101470009CC068F5883209F45BC090F4803109F4AF
:1014800054C038F4882309F4F5C0883009F44DC0FD
:10149000F5C0883109F44CC0803209F45DC0EEC05B
:1014A000803409F468C048F4803309F455C08833A7
:1014B00009F0E4C080932407A8C0803509F44FC028
:1014C000883509F45DC0883409F0D8C0D5C08839A2
:1014D00009F4C6C0A8F4883709F467C038F4883620
:1014E00009F463C0803709F460C0C8C0883809F4C3
:1014F000B7C0803909F45FC0803809F0BFC05BC055
:10150000803B09F485C038F4803A09F466C0883A13
:1015100009F47EC0B3C0803C09F4A6C0883C09F43D
:10152000A3C0883B09F489C0A9C08091900710C06E
:101530009091690780916807981770F5E0916907A5
:1015400081E08E0F80936907F0E0E659F84F8081C3
:101550008093BB0085EC85C0809324078DC0E0910B
:10156000690781E08E0F809369078091BB00F0E0EE
:10157000E659F84F808390916907809168076DC0A4
:10158000E091690781E08E0F809369078091BB002D
:10159000F0E0E659F84F808380918F0781116CC08D
:1015A00081E080938E0784EA60C083E08093910796
:1015B00010922507CFCF80912507803208F050C0C8
:1015C000E091250781E08E0F809325078091BB0075
:1015D000F0E0EA5DF84F8083BDCF8091250780322F
:1015E00030F4E0912507F0E0EA5DF84F10820E94A8
:1015F000120A6091250770E0E0918A07F0918B074D
:1016000086E297E00995109225070E941C0A36C0D1
:1016100084E0809391071092470710924607E0916B
:101620008C07F0918D07099580914607811105C0BF
:1016300081E08093460710924807E091470781E0D8
:101640008E0F80934707F0E0E85BF84F808180932E
:10165000BB009091470780914607981708F47ACF0E
:1016600085E88093BC000AC085EC8093BC00109292
:10167000910704C0109224070E94120AFF91EF9173
:10168000BF91AF919F918F917F916F915F914F919A
:101690003F912F910F900FBE0F901F9018952F9292
:1016A0003F924F925F926F927F928F929F92AF92F2
:1016B000BF92CF92DF92EF92FF920F931F93CF933F
:1016C000DF9300D000D0CDB7DEB74C017C836B83B5
:1016D0006A015901C8018701AC014C195D0957FF26
:1016E00003C051954195510995016B817C81261B61
:1016F000370B37FF03C031952195310922242394FC
:10170000312C2417350714F0212C312C21143104ED
:1017100059F03A2D2B2D5C01832F922F3B812C8188
:10172000DC82CB82C32ED22EAB81BC81AA16BB0633
:101730005CF43C2D2D2D6C01832F922F3B812C814D
:10174000BC82AB82A32EB22E2501EB81FC814E1A06
:101750005F0A3C016C187D0877FE03C071946194A8
:101760007108720157FE03C0FFEFEF1AFF0AF594EC
:10177000E794C816D9062CF421E030E03A83298397
:1017800024C06FEF7FEF7A8369831FC0D401ED918E
:10179000FC910480F581E02D980121143104D9F0E9
:1017A0004B815C81B601C4010995E618F708F7FE84
:1017B00006C0E981FA81CE0EDF1EE40CF51C2B81F8
:1017C0003C812F5F3F4F3C832B836B817C81A6162E
:1017D000B706E4F604C0A6016B817C81E4CF0F90CC
:1017E0000F900F900F90DF91CF911F910F91FF906D
:1017F000EF90DF90CF90BF90AF909F908F907F90B1
:101800006F905F904F903F902F9008956F927F92CE
:101810008F929F92AF92BF92CF92DF92EF92FF9200
:101820000F931F93CF93DF93EC015B016A013901A2
:101830004801E881F9810284F385E02D870109954B
:10184000E881F981A601480D591D415051090284D2
:10185000F385E02D9301B501CE010995E881F98169
:101860000084F185E02D9401A601B501CE01099512
:10187000E881F981B501660D771D61507109008419
:10188000F185E02D9401A601CE010995DF91CF915C
:101890001F910F91FF90EF90DF90CF90BF90AF908E
:1018A0009F908F907F906F900895EF92FF920F938B
:1018B0001F93DC01ED91FC91240F351F215031095C
:1018C0000680F781E02D780189019B0109951F9120
:1018D0000F91FF90EF900895EF92FF920F931F9357
:1018E000DC01ED91FC91260F371F21503109068054
:1018F000F781E02D78018A0109951F910F91FF90E2
:10190000EF9008956F927F928F929F92AF92BF92C5
:10191000CF92DF92EF92FF920F931F93CF93DF93BB
:101920005C014A0169013801EB01C60ED71ECC15D6
:10193000DD0574F4D501ED91FC910084F185E02D75
:1019400087019301A401BE01C50109952196EFCF3E
:10195000DF91CF911F910F91FF90EF90DF90CF908B
:10196000BF90AF909F908F907F906F900895EF926F
:10197000FF920F931F93DC01ED91FC9111971A9642
:101980000D911C911B9718962D913C9119970684E7
:10199000F785E02D7B0140E050E060E070E00995C4
:1019A0001F910F91FF90EF9008950895FC0113820D
:1019B000128289EE95E091838083758364835783D7
:1019C00046837187608753874287158A15861486F8
:1019D0001786168621E0248B8FEF9FEF938B828BE7
:1019E000918B808B268B178A118E108E08952F92E3
:1019F0003F924F925F926F927F928F929F92AF929F
:101A0000BF92CF92DF92EF92FF920F931F93CF93EB
:101A1000DF93CDB7DEB76A970FB6F894DEBF0FBE7F
:101A2000CDBF1C0158874F831C870B87FA86E98638
:101A3000CC82DC0158964D915C9159974115510526
:101A400009F0A6C018968D919C911997681779078F
:101A50000CF056C11A968D919C911B97EF81F885D9
:101A6000E817F9070CF04CC1D12CCB013C81F6E012
:101A70003F9F800D911D1124181619060CF040C1CE
:101A8000C60103E0880F991F0A95E1F74F81588539
:101A9000840F951F181619060CF032C157968C91B9
:101AA000811103C0203B08F02F5F7E876D874B01BB
:101AB000198210E9A12E10E0B12EA61AB70A55E03E
:101AC000259FA00CB11C11248981853039F0ED854A
:101AD000FE85EA0DFB1D94919A8301C01A826F80E6
:101AE00078842301A8E0AD83BA81B0FF12C0D10190
:101AF000ED91FC91BC81B13031F40480F581E02D91
:101B00002B853C8518C00684F785E02DEB84FC848A
:101B10001DC0E985FA852B853C85E217F307E1F0C6
:101B2000D101ED91FC91BC81B13059F40480F58173
:101B3000E02D29853A85A2016D857E85C101099533
:101B40000BC00684F785E02DE984FA8486019601AE
:101B5000A301B401C1010995EA81E695EA83FD81FB
:101B6000F150FD836C0C7D1C2FEF421A520AF111CB
:101B7000BBCF39813F5F39838C0C9D1C4D855E85C1
:101B80004F5F5F4F5E874D87363009F09DCFB8C0FD
:101B9000FA0134963491329785919491231BA7E0F2
:101BA0002A9F800D911D1124FA0125913491398BC2
:101BB000288BFC01459154915A8F498FFC01329634
:101BC000549159873196A491AF873196E491FC01E5
:101BD0003596249131968491BC81B23050F0622EBA
:101BE000772467FC7094E82FFF27E7FDF095FE87C8
:101BF000ED87FC81CF2ED12C6C9C40016D9C900C0C
:101C00007C9C900C1124860E971EA12C1982DE8AD2
:101C1000CD8AAB01420F511D27FD5A955E834D833E
:101C2000AF81B885A80FB11D87FDBA95B88FAF8B6E
:101C300059818F85581708F063C0852F90E02D8556
:101C40003E85280F391F2C9DD0012D9DB00D3C9D48
:101C5000B00D1124EF81F885EA0FFB1FFB83EA83A7
:101C60006D807E802401FA2D2D81F21BFA8B4F8925
:101C7000588D480F591F5C8B4B8B9A89960D862D7A
:101C80002D81821B39858317B0F5977061F4898D9A
:101C90009A8D0196E889F989298D3A8DE20FF31F13
:101CA000B4909A8F898FB7FE1DC0D101ED91FC9140
:101CB000BC81B13059F40480F581E02D2B853C8541
:101CC0004B895C89B301C10109950CC00684F78575
:101CD000E02DEB84FC84860196014A815B81B20190
:101CE000C1010995BB0CED89FE894E0E5F1EFFEF09
:101CF0006F1A7F0AC2CFA30E49814F5F498398CFE5
:101D00006A960FB6F894DEBF0FBECDBFDF91CF91BC
:101D10001F910F91FF90EF90DF90CF90BF90AF9009
:101D20009F908F907F906F905F904F903F902F90FB
:101D30000895AF92BF92CF92EF92FF920F931F93AD
:101D4000CF93DF93EC01262F888D998D009709F0B2
:101D500042C06A3069F42C898E859F8538E0239FC4
:101D6000800D911D11249F878E871D861C86ABC018
:101D70006D3009F4A8C08E898823C1F03C898C8518
:101D80009D8546E0349F800D911D1124488559851D
:101D9000841795075CF01D861C868E859F85E8E07C
:101DA0003E9F800D911D11249F878E87EA88FB88B6
:101DB000088919894E855F856C857D85CC88CE0123
:101DC0000E94F70C2C898C859D85F6E02F9F800D55
:101DD000911D112441C06A3079F41D861C864C89FE
:101DE000FC01369684912E853F85489F200D311D3C
:101DF00011243F872E8767C06D3009F464C0AC01A1
:101E00004C5F5F4FFA013491631708F45CC0319660
:101E1000E491E61708F457C0FA014491362F341BB9
:101E2000FC013296A590B490F7E03F9FA00CB11C46
:101E30001124F5013296A4913196E491AA2311F070
:101E4000E1110DC0F5013496A4902C898C859D85F7
:101E5000A29E800D911D11249D878C8734C0F501B1
:101E60003596E4913E89332309F13C89B0E0AE0F09
:101E7000B11DE7FDBA953A9FA0013B9F500D11247B
:101E80006C857D85460F571F6885798546175707EE
:101E90006CF01D861C86FC01369684914E855F850C
:101EA000389F400D511D11245F874E87EA88FB88BB
:101EB000088919894E855F856C857D85CC88CE0122
:101EC0000E94F70CBFCF81E090E0DF91CF911F918E
:101ED0000F91FF90EF90CF90BF90AF900895FC01CD
:101EE00075876487578746870895611101C061E04F
:101EF000FC01648B0895FC01738B628B718B608B8A
:101F00000895FC0185890895FC01808591850895D7
:101F1000FC018285938508950F931F93CF93DF93E0
:101F2000EC018D89823061F08330D9F0813009F085
:101F3000C8C0EC81FD81E41BF50B3197DB0118C0B3
:101F40008C819D81DC01A61BB70BBD018E819F8119
:101F5000FC01E41BF50BAF0141505109621B730BEF
:101F6000B0C0AE81BF81A61BB70BA21BB30BFA0199
:101F7000F7FD05C18C819D81E817F9070CF0FFC0C2
:101F8000B7FF04C02A0F3B1FA0E0B0E08E819F8105
:101F9000AD01420F531F841795071CF49C012A1BA7
:101FA0003B0B121613060CF0EAC0422F8A2F8695BF
:101FB0008695869590E8899FE00DF11D1124ED5BD3
:101FC000FE4FA77069F158E05A1B852F90E0EC0195
:101FD000C55CDE4F6881251760F4DC01A21BB109E6
:101FE0008FEF90E00A2E02C0959587950A94E2F74C
:101FF00068230130110539F048F00230110551F421
:102000008081862706C08081862B03C060958081F1
:1020100086238083451708F4B2C0451BE058FF4F64
:102020004830A0F102301105A9F4DF01842F9C9102
:1020300090959C93A058BF4F88508830C0F788EF88
:10204000840F869586958695B0E88B9FE00DF11DEF
:10205000112419C081E00130110509F080E0982FAA
:102060009195EF01842F9883C058DF4F88508830B6
:10207000D0F788EF840F86958695869590E8899F9E
:10208000E00DF11D1124E058FF4F4770442309F47F
:1020900076C0A42FB0E0AD5CBE4F9C91013011051D
:1020A00041F050F00230110509F069C080818927A4
:1020B00006C08081892B03C090958081892380830D
:1020C0005EC057FD5CC08E819F81481759070CF098
:1020D00056C077FF04C0260F371F60E070E08C8188
:1020E0009D81FB01E20FF31F8E179F071CF49C01DB
:1020F000261B370B121613060CF041C0CA0157FD00
:102100000796E3E095958795EA95E1F79695982FE0
:102110008827979587958D5B9E4F860F971F4770F1
:10212000552761E070E001C0660F4A95EAF7462F37
:102130000130110541F088F00230110501F5FC0174
:10214000280F391F15C0FC01280F391FE217F307AC
:10215000B1F08081842B8193F9CF6095FC01280F29
:10216000391FE217F30759F0808186238193F9CF55
:10217000E217F30721F0808184278193F9CFDF9163
:10218000CF911F910F9108950F931F93CF93DF93DA
:10219000FC018589823069F08330E1F0813009F0FB
:1021A00082C0C481D581C41BD50BC21BD30BDB01FC
:1021B00017C084819581DC01A61BB70BBD0161505E
:1021C000710986819781DC01A41BB50BAD01421B0F
:1021D000530B69C0A681B781A61BB70B1197EA0103
:1021E000B7FD08C186819781A817B9070CF002C115
:1021F000D7FF04C02C0F3D1FC0E0D0E08481958143
:10220000AE01420F531F841795071CF49C012C1B31
:102210003D0B121613060CF0EDC0CD01B7FD07966D
:1022200043E0959587954A95E1F79695982F8827ED
:10223000979587958D5B9E4F8C0F9D1FA770BB2731
:1022400041E050E00A2E01C0440F0A94EAF7642FDF
:102250000130110549F098F00230110509F0CAC0AB
:10226000FC01280F391F17C0FC01280F391FE21786
:10227000F30709F4BFC08081862B8193F8CF409586
:10228000FC01280F391FE217F30709F4B3C080815E
:1022900084238193F8CFE217F30709F4ABC0808160
:1022A00086278193F8CF77FDA5C084819581681733
:1022B00079070CF09FC057FF04C0240F351F40E082
:1022C00050E086819781FA01E20FF31F8E179F0776
:1022D0001CF49C01241B350B121613060CF08AC04B
:1022E000522F842F869586958695FB01B0E88B9FAB
:1022F000E00DF11D1124ED5BFE4F477069F168E0C0
:10230000641B862F90E0EC01C55CDE4F48812617E8
:1023100060F4DC01A21BB1098FEF90E00A2E02C02D
:10232000959587950A94E2F748230130110539F015
:1023300048F00230110551F48081842706C0808165
:10234000842B03C04095808184238083561708F432
:1023500051C0561BE058FF4F5830A0F10230110514
:10236000A9F4DF01852F9C9190959C93A058BF4FB5
:1023700088508830C0F788EF850F869586958695BA
:10238000B0E88B9FE00DF11D112419C081E00130F0
:10239000110509F080E0982F9195EF01852F988322
:1023A000C058DF4F88508830D0F788EF850F86956A
:1023B0008695869590E8899FE00DF11D1124E058DF
:1023C000FF4F57705523B1F0A52FB0E0AD5CBE4F65
:1023D0009C910130110539F048F00230110551F49B
:1023E0008081892706C08081892B03C090958081D8
:1023F00089238083DF91CF911F910F910895CF9210
:10240000DF92EF92FF920F931F93CF93DF937C01A4
:102410008B01EA01690177FDA0C00E94840F0817B3
:1024200019070CF09AC0D7FD98C0C7010E94880F09
:10243000C817D9070CF091C0C7010E94810F8230E4
:1024400009F07FC0F701848195819C01201B310B2D
:1024500089010150110986819781FC01EC1BFD0B5C
:10246000EF0121970BC0813049F4F70184819581F8
:102470008C1B9D0BE8018C0101501109F1E0CF1676
:10248000D10431F010F132E0C316D104E1F165C09E
:10249000FE01D7FD379683E0F595E7958A95E1F73C
:1024A000F695FE2FEE27F795E795E00FF11FED5B10
:1024B000FE4FC770DD2781E090E00C2E01C0880F31
:1024C0000A94EAF79081982B3AC0FE01D7FD37961F
:1024D000A3E0F595E795AA95E1F7F695FE2FEE278F
:1024E000F795E795E00FF11FED5BFE4FC770DD2715
:1024F00081E090E00C2E01C0880F0A94EAF78095E5
:10250000908198231CC0FE01D7FD379663E0F595B6
:10251000E7956A95E1F7F695FE2FEE27F795E79593
:10252000E00FF11FED5BFE4FC770DD2781E090E00B
:102530000C2E01C0880F0A94EAF7908198279083A7
:102540000CC0833009F08FCFF70186819781801B03
:10255000910B8E01EC01219791CFDF91CF911F91CB
:102560000F91FF90EF90DF90CF9008951F93CF933E
:10257000DF93EC01162F40E450E060E870E00E9429
:10258000D60C81E096E0998388838FEF8C8F88A3A7
:102590008E8F8D8F1F8FDF91CF911F91089580E0D7
:1025A00094E0E3E4F1E0DF019C011D922150304012
:1025B000E1F70895FC0181A1882339F06EBD000088
:1025C0000DB407FEFDCF8EB5089588E090E030E8A9
:1025D000A4A1B5A14C9123A5209524232C93A2A1BD
:1025E000B3A122A5432F462321F04C91422B4C93BB
:1025F00004C04C91209524232C93A4A1B5A12C9127
:1026000043A5242B2C933695019711F708951F931A
:10261000CF93DF93EC01162F8C8D8F3F09F1EEA144
:10262000FFA180819CA5892B8083E8A5F9A59081D5
:102630008DA5809589238083EEA1FFA190818CA533
:10264000809589238083CE010E94DA12EEA1FFA13A
:1026500080819CA5892B8083DF91CF911F91089564
:102660008A8D682F772767FD709582ED96E00E942E
:102670006C0960E082ED96E00E941909612F82EDFD
:1026800096E00E94190982ED96E0DF91CF911F91AB
:102690000C9481090F931F93CF93DF93EC01162FB6
:1026A000022F6B8F4A8F8C8D8F3F09F48CC061E0B5
:1026B0008E8D0E94761661E088A10E94761688A110
:1026C000992787FD9095FC01E854FA4FE491F0E0DA
:1026D000EE0FFF1FEA52FA4F259134913FA32EA32C
:1026E000FC01EC55FA4F84918CA78E8D992787FDBC
:1026F0009095FC01E854FA4FE491F0E0EE0FFF1FD3
:10270000EA52FA4F2591349139A728A7FC01EC55DC
:10271000FA4F84918DA789A1811134C061E08C8D1D
:102720000E94761661E08D8D0E9476168D8D992718
:1027300087FD9095FC01E854FA4FE491F0E0EE0F2C
:10274000FF1FEA52FA4F259134913DA32CA3FC01BF
:10275000EC55FA4F84918BA78C8D992787FD909526
:10276000FC01E854FA4FE491F0E0EE0FFF1FEA524B
:10277000FA4F259134913BA32AA3FC01EC55FA4F63
:1027800084918AA789A1882311F10E948B088091E6
:10279000D006882399F09FB7F8948091D0068130B5
:1027A00059F48DB38093CE062DB38091CF068095DA
:1027B00082238DBB9FBF02C09093CE0680E58CBD67
:1027C00081E08DBD04C082ED96E00E94580900238F
:1027D000F1F08F8D87FD1BC061E00E94761661E0ED
:1027E0008F8D0E94AF1661E070E080E090E00E9463
:1027F000EA1560E08F8D0E94AF166AE070E080E01D
:1028000090E00E94EA1561E08F8D0E94AF166EEA9B
:10281000CE010E94071365EDCE010E94071360E808
:10282000CE010E94071368EACE010E9407136FE3EE
:10283000CE010E94071363EDCE010E94071360E0F2
:10284000CE010E94071360E4CE010E9407136DE8D9
:10285000CE010E940713113011F460E101C064E160
:10286000CE010E94071360E2CE010E94071360E0D0
:10287000CE010E94071361EACE010E94071368ECA3
:10288000CE010E9407136AEDCE010E94071362E198
:10289000CE010E94071361E8CE010E940713113098
:1028A00011F46FE901C06FECCE010E94071369EDCE
:1028B000CE010E940713113011F462E201C061EFF2
:1028C000CE010E9407136BEDCE010E94071360E456
:1028D000CE010E94071364EACE010E94071366EA44
:1028E000CE010E9407136EE2CE010E9407136FEA29
:1028F000CE01DF91CF911F910F910C940713DF92BE
:10290000EF92FF920F931F93CF93DF93EC0161E25D
:102910000E94071360E0CE010E9407136FE7CE010B
:102920000E94071362E2CE010E94071360E0CE010D
:102930000E94071367E0CE010E9407138C8D8F3F22
:1029400031F1EEA1FFA180819CA5892B8083E8A5B0
:10295000F9A580819DA5892B8083EEA1FFA190819F
:102960008CA580958923808303E411E0F8016191AF
:102970008F01CE010E94DA12F5E003341F07B1F790
:10298000EEA1FFA180819CA5892B808337C0D090C8
:10299000B8008CE08093B80003E411E06A8D7727DB
:1029A00067FD709582ED96E00E946C09E091D20679
:1029B000F091D3060190F081E02D60E482ED96E085
:1029C0000995E12CF12CF801EE0DFF1D608182EDDF
:1029D00096E00E9419098FEFE81AF80AE0E1EE1676
:1029E000F10489F782ED96E00E948109005F1F4F94
:1029F000F5E003341F0791F6D092B800DF91CF9134
:102A00001F910F91FF90EF90DF9008951F93CF9348
:102A1000DF93EC01122F4C835D836E837F830E94D2
:102A2000BB15688379838A839B83812F0E94E51677
:102A300088871987DF91CF911F910895FF920F9397
:102A40001F93CF93DF93EC0189850E94E516F82E42
:102A500088858F1103C080E090E01CC00E94BB15E8
:102A6000088119812A813B81601B710B820B930BBA
:102A70000C811D812E813F816017710782079307AA
:102A800050F30E94BB15688379838A839B83F88601
:102A900081E090E0DF91CF911F910F91FF90089519
:102AA000FC01808590E008958E3008F08E5087708C
:102AB0002091430590E4299F90011124822B80935B
:102AC0007C0080917A00806480937A0080917A0003
:102AD00086FDFCCF809178002091790090E0922BC8
:102AE00008951F920F920FB60F9211242F933F93C8
:102AF0008F939F93AF93BF93809193079091940787
:102B0000A0919507B09196073091920723E0230F8B
:102B10002D3720F40196A11DB11D05C026E8230F15
:102B20000296A11DB11D2093920780939307909365
:102B30009407A0939507B09396078091970790917B
:102B40009807A0919907B0919A070196A11DB11D10
:102B50008093970790939807A0939907B0939A074B
:102B6000BF91AF919F918F913F912F910F900FBE89
:102B70000F901F9018952FB7F8946091930770915C
:102B8000940780919507909196072FBF08953FB7BE
:102B9000F8948091970790919807A0919907B09128
:102BA0009A0726B5A89B05C02F3F19F00196A11DD5
:102BB000B11D3FBF6627782F892F9A2F620F711D95
:102BC000811D911D42E0660F771F881F991F4A954E
:102BD000D1F70895CF92DF92EF92FF92CF93DF93D8
:102BE0006B017C010E94C715EB01C114D104E10403
:102BF000F10489F00E94C1180E94C7156C1B7D0B5F
:102C0000683E734090F381E0C81AD108E108F108EA
:102C1000C851DC4FEACFDF91CF91FF90EF90DF906A
:102C2000CF900895789484B5826084BD84B5816026
:102C300084BD85B5826085BD85B5816085BDEEE6C4
:102C4000F0E0808181608083E1E8F0E010828081A3
:102C500082608083808181608083E0E8F0E0808111
:102C600081608083E1EBF0E0808184608083E0EB31
:102C7000F0E0808181608083EAE7F0E08081846019
:102C80008083808182608083808181608083808175
:102C9000806880831092C1000895833081F028F409
:102CA000813099F08230A1F008958730A9F0883002
:102CB000B9F08430D1F4809180008F7D03C0809181
:102CC00080008F7780938000089584B58F7702C04D
:102CD00084B58F7D84BD08958091B0008F7703C047
:102CE0008091B0008F7D8093B0000895CF93DF93E3
:102CF00090E0FC01EC55FA4F2491FC01E854FA4FA6
:102D00008491882349F190E0880F991FFC01E052DB
:102D1000FA4FA591B4918A529A4FFC01C591D49172
:102D20009FB7611108C0F8948C91209582238C93F1
:102D3000888182230AC0623051F4F8948C91322F3A
:102D4000309583238C938881822B888304C0F894E8
:102D50008C91822B8C939FBFDF91CF9108950F931D
:102D60001F93CF93DF931F92CDB7DEB7282F30E0AC
:102D7000F901E057FA4F8491F901EC55FA4F14919B
:102D8000F901E854FA4F04910023C9F0882321F097
:102D900069830E944D166981E02FF0E0EE0FFF1F5E
:102DA000EA52FA4FA591B4919FB7F8948C916111B2
:102DB00003C01095812301C0812B8C939FBF0F907E
:102DC000DF91CF911F910F910895CF93DF93282F1B
:102DD00030E0F901E057FA4F8491F901EC55FA4FD0
:102DE000D491F901E854FA4FC491CC2391F08111A8
:102DF0000E944D16EC2FF0E0EE0FFF1FE453FA4F48
:102E0000A591B4912C912D2381E090E021F480E0F4
:102E100002C080E090E0DF91CF91089508950E9474
:102E200012160E940E170E942103C0E0D0E00E94FB
:102E3000A1032097E1F30E940000F9CF0E9433190B
:102E4000CF92DF92EF92FF920F931F93CF93DF9376
:102E50006C017A01EB01E60EF71E00E010E0CE15E2
:102E6000DF0561F06991D601ED91FC910190F0814F
:102E7000E02DC6010995080F191FF1CFC801DF9198
:102E8000CF911F910F91FF90EF90DF90CF90089519
:102E90006115710581F0DB010D900020E9F7AD01AE
:102EA00041505109461B570BDC01ED91FC9102800A
:102EB000F381E02D099480E090E008950C94481788
:102EC000DC01ED91FC910190F081E02D099465E128
:102ED00076E00C9448170F931F93CF93DF93EC0188
:102EE0000E9448178C01CE010E946717800F911F26
:102EF000DF91CF911F910F9108958F929F92AF9282
:102F0000BF92CF92DF92EF92FF920F931F93CF93D6
:102F1000DF93CDB7DEB7A1970FB6F894DEBF0FBE33
:102F2000CDBF7C01C42EE52FCB01D22E19A221E00A
:102F30002D1510F02AE0D22E8E010F5D1F4F8D2C23
:102F4000912CA12CB12C6C2D7E2FA50194010E94F7
:102F5000D2188C2DD29E80191124015011098A306B
:102F600014F4805D01C0895CF8018083211531056E
:102F70004105510521F0C22EE32FCA01E4CFB8016B
:102F8000C7010E944817A1960FB6F894DEBF0FBE86
:102F9000CDBFDF91CF911F910F91FF90EF90DF9008
:102FA000CF90BF90AF909F908F900895CF92DF9277
:102FB000EF92FF920F931F93CF93DF93EC016A017F
:102FC0007B012115310579F4E881F9810190F081C7
:102FD000E02D642FDF91CF911F910F91FF90EF9023
:102FE000DF90CF9009942A303105E9F477FF1AC0B9
:102FF0006DE20E9460178C0144275527BA014C19D5
:103000005D096E097F092AE0CE010E947D17800FBD
:10301000911FDF91CF911F910F91FF90EF90DF9063
:10302000CF9008952AE0B701A601CE01DF91CF919C
:103030001F910F91FF90EF90DF90CF900C947D1730
:103040009A01AB01662757FD6095762F0C94D61731
:103050000F931F93CF93DF93EC019A01AB01662787
:1030600057FD6095762F0E94D6178C01CE010E94E5
:103070006717800F911FDF91CF911F910F910895D6
:103080002115310541F4DC01ED91FC910190F081B5
:10309000E02D642F09940C947D170F931F93CF9309
:1030A000DF93EC019A01462F50E060E070E00E944F
:1030B00040188C01CE010E946717800F911FDF918D
:1030C000CF911F910F9108950F931F93CF93DF938B
:1030D000EC019A01AB0160E070E00E9440188C01A5
:1030E000CE010E946717800F911FDF91CF911F9132
:1030F0000F9108954F925F926F927F92AF92BF921D
:10310000CF92DF92EF92FF920F931F93CF93DF93B3
:10311000CDB7DEB729013A01621B730B840B950B07
:1031200029893A894B895C892A193B094C095D092F
:10313000298B3A8B4B8B5C8B9B01AC0169897A891B
:103140008B899C890E94C218E418F50806091709A2
:10315000A80197010E94F4182A0D3B1D4C1D5D1D0E
:10316000CA01B901DF91CF911F910F91FF90EF90AC
:10317000DF90CF90BF90AF907F906F905F904F9017
:1031800008950895DB018F939F930E941919BF91B1
:10319000AF91A29F800D911DA39F900DB29F900DA6
:1031A00011240895A1E21A2EAA1BBB1BFD010DC01C
:1031B000AA1FBB1FEE1FFF1FA217B307E407F507E7
:1031C00020F0A21BB30BE40BF50B661F771F881FC3
:1031D000991F1A9469F760957095809590959B0159
:1031E000AC01BD01CF010895052E97FB1EF400949C
:1031F0000E940B1957FD07D00E94D21807FC03D07C
:103200004EF40C940B1950954095309521953F4FF5
:103210004F4F5F4F089590958095709561957F4FC2
:103220008F4F9F4F0895EE0FFF1F0590F491E02DF3
:1032300009940E942419A59F900DB49F900DA49FFE
:10324000800D911D11240895A29FB001B39FC0016C
:10325000A39F700D811D1124911DB29F700D811DC2
:103260001124911D089581E090E0F8940C94381990
:04327000F894FFCF00
:1032740000009B0780000100000001F203A301E8A5
:10328400016E01F502FFFF5902140132010001F23F
:10329400036D01E0019E016002FFFFFD020201389F
:1032A400011A01000103070F1F3F7F0080C0E0F0F7
:1032B400F8FCFE0000000000000000000000000018
:1032C40000000000000000000000000000000000FA
:1032D40000000000000000000000000000000000EA
:1032E40000000000000000000000000000000000DA
:1032F400000080808000000000000000000000004A
:10330400000000008080C0C0000000000000000039
:1033140000000000000000000000000000000000A9
:103324000000000000000000000000000000000099
:103334000000000000000000000000000000000089
:103344000000000000000080C0E0F0F8FCF8E0009D
:103354000000000000000000000000000000000069
:1033640080808080800080800000000080808080D9
:103374008000FFFFFF00000000808080800000804C
:1033840080000080FFFF808000808000808080803B
:103394000080800000000000808000008C8E84008B
:1033A4000080F8F8F8800000000000000000000031
:1033B400000000F0F0F0F0F0F0F0F0F0F0F0F0E0E9
:1033C400E0C08000E0FCFEFFFFFF7FFFFFFFFFFF88
:1033D4000000000000000000000000000000FEFFEC
:1033E400C70101010183FFFF00007CFEC701010149
:1033F4000183FFFFFF0038FEC78301010183C7FF7C
:10340400FF000001FFFF010100FFFF0701010100B0
:10341400007FFF80000000FFFF7F0000FFFFFF0030
:103424000001FFFFFF010000000000000000000099
:10343400000000030F3F7F7FFFFFFFFFFFFFFFE759
:10344400C7C78F8F9FBFFFFFC3C0F0FFFFFFFFFF02
:10345400FCFCFCFCFCFCFCFCF8F8F0F0E0C0000117
:103464000303030303010303000000000103030338
:10347400030101030100000001030303030101032D
:103484000300000003030000000303000000000029
:103494000000010303030303010000000103010012
:1034A4000000030301000000000000000000000011
:1034B40000000000000080C0E0F0F9FFFFFFFFFF04
:1034C4003F1F0F87C7F7FFFF1F1F3DFCF8F8F8F8F1
:1034D4007C7DFFFFFFFFFFFFFFFF7F3F0F070030F3
:1034E40030000000000000000000000000000000A8
:1034F40000000000000000FEFEFC000000000000D0
:1035040000000000000000000000000000000000B7
:10351400E0C00000000000000000000000303000A7
:103524000000000000000000000000000000000097
:1035340000000000C0FEFFFFFFFFFFFFFFFFFF7F53
:103544007F3F1F0F071F7FFFFFF8F8FFFFFFFFFFFD
:10355400FEF8E0000000010000000000000000FE92
:10356400FE000000FCFEFC0C06060EFCF80000F059
:10357400F81C0E0606060CFFFFFF0000FEFE00000E
:103584000000FCFEFC00183C7E66E6CE84000006CB
:10359400FFFF0606FCFEFC0C0606060000FEFE000D
:1035A40000C0F8FC4E4646464E7C7840183C76E611
:1035B400CECC8000000000000000000000000000ED
:1035C4000000000000000001070F1F1F3F3F3F3FA6
:1035D4001F0F030000000000000000000000000FA7
:1035E4000F0000000F0F0F000000000F0F0000037A
:1035F400070E0C18180C060F0F0F0000010F0E0C0D
:10360400180C0F070100040E0C180C0F0700000023
:103614000F0F00000F0F0F0000000000000F0F003D
:10362400000007070C0C181C0C060600040E0C18EE
:103634000C0F070000000000000000000000000064
:103644000000000000000000000000000000000076
:103654000000000000000000000000000000000066
:103664000000000000000000000000000000000056
:103674000000000000000000000000000000000046
:103684000000000000000000000000000000000036
:103694000000000000000000000000000000000026
:1036A4000000000000000000000000000000000016
:1036B40000000001524320636F6E74726F6C6C657E
:1036C4007200456D756C61746F722076312E300016
:1036D400627920416E746F6E204B727567003230D0
:1036E40031360046430046544449004C6566743AFA
:1036F400202020200052696768743A20202000634B
:10370400685468723A2020200063685961773A202F
:10371400202000636850697463683A20006368522B
:103724006F6C6C3A20200042746E413A20202020B5
:10373400002042746E423A202020004F53442063FC
:103744006F6D3A2000000000001909EC08C108C997
:1037540008DC08EB0800000000990E20171E174F24
:103764000B550C6C0C060C820CB70CD50C0000002D
:1037740000990E2017FF114F0BC4108C0F060C82FA
:103784000CB70CD50C0D0A006E616E00696E6600F4
:063794006F7666002E00B6
:00000001FF
